:020000040800F2
:1000000008360020A5010008BD0A0008250A0008DE
:10001000890A0008610600084D1800080000000069
:10002000000000000000000000000000610C00085B
:100030005909000800000000410B0008810E00086B
:10004000BF010008BF010008BF010008BF01000890
:10005000BF010008BF010008BF010008BF01000880
:10006000BF010008BF010008BF010008BF01000870
:10007000BF010008BF010008BF010008BF01000860
:10008000BF010008BF010008BF010008BF01000850
:10009000BF010008BF010008BF010008BF01000840
:1000A000BF010008BF010008BF010008BF01000830
:1000B000BF010008BF010008BF010008BF01000820
:1000C000BF010008BF010008BF010008BF01000810
:1000D000BF01000819130008BF0100087D140008C3
:1000E000BF010008BF010008BF01000800F002F8CE
:1000F00000F048F80AA090E8000C82448344AAF17A
:100100000107DA4501D100F03DF8AFF2090EBAE877
:100110000F0013F0010F18BFFB1A43F0010318473B
:10012000F43E0000143F0000103A24BF78C878C1A4
:10013000FAD8520724BF30C830C144BF04680C60ED
:10014000704700000023002400250026103A28BF35
:1001500078C1FBD8520728BF30C148BF0B60704739
:10016000642900F0AB80752900F0A880632900F0B5
:10017000EB81732900F0F081002070471FB51FBD8F
:1001800010B510BD00F034FA1146FFF7F7FF01F08B
:1001900097FB00F052FA03B4FFF7F2FF03BC01F043
:1001A00057FB00000948804709480047FEE7FEE783
:1001B000FEE7FEE7FEE7FEE7FEE7FEE7FEE7FEE717
:1001C00004480549054A064B70470000950E000893
:1001D000ED0000080830002008360020083200201A
:1001E00008320020704700000FB4044910B503AA7C
:1001F000029800F0B5F910BC5DF814FB6C02002009
:100200002DE9F0410E460446002020622046E168B8
:10021000884730B3252805D0D4E901219047206ACA
:10022000401CF2E7E168204600278847050018D007
:10023000A5F14100192802D820354FF40067324655
:10024000294620462760FFF78BFF40B1012804D0E4
:10025000F61D26F007060836D8E7361DD6E72846ED
:10026000DAE7206ABDE8F08170B50C460546012A40
:1002700005D02878800600D5EA69002302E0012332
:1002800005E05B1C934202D2E05C0028F9D1A8692A
:10029000E618C01AA861286A184428622846AFF3F5
:1002A000008004E0D5E9012114F8010B9047B44225
:1002B000F8D32846AFF3008070BD00002DE9F0416F
:1002C0000646002410687529314616A510D0AFF3F4
:1002D0000080002802DA404213A507E031688A074F
:1002E00001D512A502E0490704D511A5012401E0BA
:1002F000AFF3008000210A2206F1240709E0B0FBD9
:10030000F2FCB0FBF2F302FB1C00303078541846CC
:10031000491C0028F3D123462A463046BDE8F04167
:1003200000F096B8000000002D0000002B00000037
:100330002000000010B5044603E001F0B7FA401CAD
:1003400009D014F8010B05490028F6D1BDE810408A
:100350000A2001F0ABBA4FF0FF3010BD6C02002054
:10036000032A40F2308010F0030C00F0158011F8E1
:10037000013BBCF1020F624498BF11F801CB00F8B9
:10038000013B38BF11F8013BA2F1040298BF00F80D
:1003900001CB38BF00F8013B11F0030300F0F280FD
:1003A000083AC0F0088051F8043B083A51F804CBF1
:1003B000A0E80810F5E7121D5CBF51F8043B40F8B7
:1003C000043BAFF30080D20724BF11F8013B11F8C2
:1003D00001CB48BF11F8012B24BF00F8013B00F806
:1003E00001CB48BF00F8012B704702F0FF0343EA3E
:1003F000032242EA024200F002B84FF0000200B5C8
:10040000134694469646203922BFA0E80C50A0E837
:100410000C50B1F12001BFF4F7AF090728BFA0E8E5
:100420000C5048BF0CC05DF804EB890028BF40F8B1
:10043000042B08BF704748BF20F8022B11F0804FF3
:1004400018BF00F8012B704770477047704770471E
:100450002DE9F0470D4699469246044600F12408DE
:100460000168880604D5E06921F01001216000E0F0
:100470000120A84201DD471B00E00027A1697A198D
:1004800002EB0900081AA0612078C00602D42046B9
:10049000AFF30080002608E0D4E901211AF8060035
:1004A0009047206A401C761C20624E45F4DB207881
:1004B000C0060AD52046AFF3008006E0D4E901214A
:1004C00030209047206A401C2062381EA7F10107A7
:1004D000F4DC07E0D4E9012118F805009047206A10
:1004E000401C2062281EA5F10105F3DC2046AFF375
:1004F00000802078000602D50220BDE8F0870120A8
:10050000FBE7000001694A1C02610878704700B5EA
:100510008FB0CDE901310021059105497944CDE93C
:10052000031011466846FFF76BFE0FB000BD0000D8
:10053000E5FFFFFF10B5436913B1AFF3008001E0A1
:10054000FFF792FE012010BD127800F124010A701D
:1005500000224A700122EDE711684FF0FF32E9E70F
:10056000074B70B50D467B44FFF7D1FF0446284684
:1005700000F03AF810B14FF0FF3070BD204670BD6A
:100580004313000010B5203AC0F00B80B1E81850BA
:10059000A0E81850B1E81850A0E81850203ABFF46D
:1005A000F5AF5FEA027C24BFB1E81850A0E818500C
:1005B00044BF18C918C0BDE810405FEA827C24BF60
:1005C00051F8043B40F8043B08BF7047D20728BFEE
:1005D00031F8023B48BF11F8012B28BF20F8023B3D
:1005E00048BF00F8012B7047007B00F08000704787
:1005F000754600F02BF8AE4605006946534620F0DC
:100600000700854618B020B5FFF7DAFDBDE82040A9
:100610004FF000064FF000074FF000084FF0000BBE
:10062000AC46ACE8C009ACE8C009ACE8C009ACE82D
:10063000C00921F007018D46704710B50446AFF39D
:1006400000802046BDE81040FFF7A5BD0048704778
:10065000680000204FF4E13000F0A4BF01F020B8A2
:10066000FEE70000B0B540F2682CC2F2000CBCF905
:100670000010B1F1FF3FC8BFB0BD40F2A012C2F2FE
:100680000002013A12F8013FA52BFBD140F2702085
:10069000C2F20000037040F2946E5378947855795A
:1006A000B2F80320C2F2000E8EF80030437084705E
:1006B000A0F803205A2D18BF0025457101F44050C1
:1006C000ACF80000B0BD0000F0B581B040F6000409
:1006D000C4F2010404F5006110204FF4404200F020
:1006E000D5F904202146062200F0D0F90420214645
:1006F000302200F0CBF904202146C02200F0C6F9D8
:10070000FFF7A8FF40F283300021002700F0FAFC39
:1007100040F28330002100F037FD40F283300021A9
:1007200000F076FD40F28330002100F0B3FD40F28E
:100730009460C2F20000007840F20804C007C2F2E0
:1007400000041ED061692046277384F8247004F1E8
:10075000180584F83C7004F1300684F8547004F1F4
:1007600048078847E16A28468847616C30468847D1
:10077000E16D3846884743F6F070C0F60000FFF799
:100780006DFF2269204600219047A26A04F11800FB
:1007900000219047226C04F1300000219047A26DA7
:1007A00004F14800002190470EA0FFF757FF43F6E1
:1007B000B974C0F600042046FFF7BCFD43F6BB75D4
:1007C000C0F600052846FFF7B5FD0AA0FFF7B2FD09
:1007D0002846FFF7AFFD204601B0BDE8F040FFF727
:1007E000A9BD00BF7475726E20666F727761726406
:1007F0000000000020202020202020202020202079
:100800002043617220686173206265656E20696EA5
:10081000697469616C697A6564210D00FFF754FFA2
:1008200040F2682840F2CC0943F6B97443F691755A
:1008300040F2702AC2F20008C2F20009C0F60004B9
:10084000C0F60005C2F2000A0FF2C40B36A63CA7A0
:1008500007E000BFD9F8000002F024F8012001F001
:1008600095FEB8F90000B0F1FF3FF3DCFFF7FAFEA8
:100870002046FFF75FFD2846FFF75CFD9AF9001060
:1008800011A0FFF7B1FC9AF9011015A0FFF7ACFC1D
:100890009AF9021018A0FFF7A7FC9AF9031058461E
:1008A000FFF7A2FC9AF904103046FFF79DFC9AF975
:1008B00005103846FFF798FC2846FFF73BFD204619
:1008C000FFF738FDC6E700BF6470722D3E706163AC
:1008D0006B65745F486561643A202025640D0A00E9
:1008E0006470722D3E666C61673A202020202020C3
:1008F00020202025640D0A006470722D3E75705F03
:10090000646F776E3A20202020202025640D0A0095
:100910006470722D3E6C6566745F72696768743AC4
:1009200020202025640D0A006470722D3E636865E6
:10093000636B5F427974653A20202025640D0A00BC
:100940006470722D3E7061636B65745F5461696C95
:100950003A202025640D0A00704700002DE9F04779
:10096000CA7802F00F0CD30644BF8B784CEA030C14
:1009700009880B0625D082465AF8144B00F1100E58
:1009800000254FF001094FF00F08002706E000BFD7
:100990001E600137082F05F1040511D009FA07F68A
:1009A0000E42F6D008FA05F324EA03030CFA05F424
:1009B0001C43282A5346EBD0482AEAD17346E7E77E
:1009C0000460B1F5807F38BFBDE8F087436800F16F
:1009D000100E00F1140900254FF4807A4FF00F0833
:1009E000002705E034600137082F05F1040512D017
:1009F0000AFA07F404EA0106A642F4D108FA05F659
:100A0000B3430CFA05F63343282A4E46EAD0482A67
:100A1000E9D17646E6E74360BDE8F087416170477B
:100A200001617047FEE7000010B582B0102001217F
:100A300000F0B4F842F2000041F20004C1F20300F9
:100A4000C4F20104019001A92046FFF787FF204668
:100A50004FF40051FFF7E4FF02B010BD40F2B414B0
:100A6000C4F22224FFF7E0FF012500264FF4FA70BC
:100A7000256001F08BFD4FF4FA70266001F086FDD1
:100A8000002001F0CFFFF1E7FEE70000B0B582B033
:100A90000D460121144600F081F841F20300ADF843
:100AA000060001A92846ADF80440FFF757FF284685
:100AB0002146FFF7B3FF02B0B0BD00007047000051
:100AC00010B5C17800294EF20011CEF200011AD003
:100AD0004EF60C52CEF200021268072323EA1222CD
:100AE0000F23C2F1040C23FA02F24378847890F8C1
:100AF00000E003FA0CF322401A43120101EB0E034B
:100B000083F8002300E080310078012300F01F0209
:100B100003FA02F2C0F3421041F8202010BD000099
:100B200040F080604EF60C5140F0FD70CEF20001B6
:100B30000860704700000000000000000000000096
:100B4000EFF30980BFF36F8F0D4B1A6820E9F00FA8
:100B500010602DE908404FF0500080F3118802F03A
:100B60002BF84FF0000080F31188BDE808401968A9
:100B70000868B0E8F00F80F30988BFF36F8F704703
:100B80007C020020002941F21C01C4F202010A6823
:100B90000CBF22EA0000104308607047002941F2B0
:100BA0001801C4F202010A680CBF22EA00001043D7
:100BB0000860704710B541F20404C4F202042268D0
:100BC00002F00C02082A41F20022C0F27A021CD183
:100BD0002368D4F800C0C3F3834E5FEACC330EF130
:100BE000020C06D440F60012C0F23D020CFB02F2E9
:100BF0000BE023689B0302D40CFB02F205E040F6F5
:100C00000012C0F23D020CFB02F20260226843F6C1
:100C1000D463C2F30312C0F600039A5C0168D140AA
:100C200041602268C2F302229A5C21FA02F28260D9
:100C30002268C2F3C2229A5C43F6D063D140C160FD
:100C40002268C0F60003C2F381329A5CB1FBF2F174
:100C5000016110BD00000000000000000000000065
:100C6000074B19680868B0E8F00F80F30988BFF3F4
:100C70006F8F4FF0000080F311884EF00D0E70471B
:100C80007C02002029B1012918BF704701210022F0
:100C900000E00122D0E900301A60016070470000D6
:100CA000642888BF704770B5C0F16400C0B202F01C
:100CB000FDFF42F60044C4F201040546A08D0E4635
:100CC000013002F0DCFF02460B462846314603F0B5
:100CD00001F80023C4F25903002202F047FE02F09B
:100CE0009FFF002818BF013881B22046BDE8704040
:100CF00000F0AEB9642888BF7047B0B5C0F1640099
:100D0000C0B202F0D3FF04462C20C4F200000088D9
:100D10000D46013002F0B3FF02460B46204629463D
:100D200002F0D8FF0023C4F25903002202F01EFE95
:100D300002F076FF002818BF013881B24FF08040E2
:100D4000BDE8B04000F084B9642888BF704770B532
:100D5000C0F16400C0B202F0A9FF40F20044C4F246
:100D600000040546A08D0E46013002F088FF0246C1
:100D70000B462846314602F0ADFF0023C4F259036A
:100D8000002202F0F3FD02F04BFF002818BF0138EB
:100D900081B22046BDE8704000F05AB9642888BF8F
:100DA000704770B5C0F16400C0B202F07FFF40F63A
:100DB0000004C4F200040546A08D0E46013002F086
:100DC0005EFF02460B462846314602F083FF0023B1
:100DD000C4F25903002202F0C9FD02F021FF0028ED
:100DE00018BF013881B22046BDE8704000F030B92C
:100DF00010B582B001F0C0FA40F2CC00C2F200009F
:100E0000019040F65D200124C0F600000FA1802271
:100E10000023009402F06EFA40F2C80C40F61D0068
:100E2000C2F2000CC0F600000CA14FF47A7200234D
:100E30000094CDF804C002F05DFA002001F00AFC35
:100E400002B0BDE8104001F0BDBA00BF4C65645F60
:100E5000466C6173685F5461736B00004361725F3D
:100E60005461736B000000004EF21001CEF20001DD
:100E70000A68042822F0040208BF04320A6070479E
:100E800080B502F027FB012808BF80BDBDE8804087
:100E900001F05EBF82B041F20400C4F2020050F8DB
:100EA000041C002241F0010140F8041C0168CFF647
:100EB000FF021140016050F8041C4FF6FF72CFF69C
:100EC000F662114040F8041C50F8041C21F4802103
:100ED00040F8041C016821F4FE0101604FF41F0179
:100EE000416000210191009150F8041C41F48031CF
:100EF00040F8041C50F8041C01F4003100910199E1
:100F000001310191009919B90199B1F5A06FF1D1A1
:100F100050F8041C890354BF00210121009100995D
:100F2000012936D142F20001C4F202010A6842F0FE
:100F300010020A600A6822F007020A600A6842F09A
:100F400002020A600168016001680160016841F401
:100F500080610160016821F47C110160016841F445
:100F6000E811016050F8041C41F0807140F8041C45
:100F700050F8041C8901FBD5016821F003010160D0
:100F8000016841F002010160016801F00C010829CB
:100F9000FAD14EF60850CEF200004FF00061016029
:100FA00002B070470288002918BF012122F0800298
:100FB00042EAC111018070470288002918BF01214F
:100FC00022F001021144018070470000B0F8442073
:100FD000002918BF01216FF3DF3242EAC131A0F8C6
:100FE00044107047028B22F4006242EA012101831F
:100FF0007047000070B5028C43F2004622F4805224
:101000000284038C8288B0F81CE0B1F800C00C891F
:101010004D88C4F20106B04205D042F60046C4F243
:101020000106B04204D18E8922F4804242EA86123F
:101030002EF4E64646EA0C268280868323F400538B
:101040002C43C98843EA0432A0F84010028470BDE2
:10105000A0F840107047000040F6FF33B0F800C021
:10106000C4F2000398420FDCB0F1804F1ED040F272
:101070000043C4F20003984218D040F60003C4F2C3
:101080000003984212D016E040F60043C4F2000379
:1010900098420BD043F20043C4F20103984205D0BA
:1010A00042F60043C4F20103984204D14B882CF06D
:1010B000700243EA020C41F2004240F48063C4F241
:1010C0000002934204D0CA882CF4407342EA030C15
:1010D000A0F800C08A888285A0F18042A2F59632ED
:1010E0000B884FEAB222072A038507D8012303FAA7
:1010F00002F212F0E50F1CBF097A018601218182FC
:101100007047000070B588B00E46054640F60500F1
:101110000121FFF743FD40F6000042F60044C1F60E
:101120000300C4F201040790A4F5105007A9FFF7CB
:1011300015FCADF81060002604A92046ADF8145047
:10114000ADF81660ADF81260FFF786FF7020C0F2B0
:101150000100009069462046ADF80860ADF80650E1
:10116000FFF748FF20460121FFF730FF2046082106
:10117000FFF738FF20460121FFF714FF2046012129
:10118000FFF71AFF08B070BD70B588B00E46044670
:1011900001200121FFF7F6FC05200121FFF7FEFCED
:1011A000082040F60005C1F60300C4F201050790CF
:1011B00007A92846FFF7D2FBADF81060002604A966
:1011C0004FF08040ADF81440ADF81660ADF81260F5
:1011D000FFF742FF7020C0F20100009069464FF017
:1011E0008040ADF80860ADF80640FFF703FF4FF010
:1011F00080400821FFF7F6FE05F510500121FFF7AA
:10120000D1FE4FF080400121FFF7D6FE08B070BD3F
:1012100070B588B00E46054602200121FFF7B2FCEA
:1012200009200121FFF7BAFC022040F20044C1F678
:101230000300C4F20004079004F5843007A9FFF707
:101240008DFBADF81060002604A92046ADF81450BF
:10125000ADF81660ADF81260FFF7FEFE7020C0F228
:101260000100009069462046ADF80860ADF80650D0
:10127000FFF7C0FE20460821FFF7B4FE04F59430C6
:101280000121FFF78FFE20460121FFF795FE08B0F0
:1012900070BD000070B588B00E46054604200121DF
:1012A000FFF770FC09200121FFF778FC40F20020D5
:1012B00040F60004C1F60300C4F20004079004F5F0
:1012C000823007A9FFF74AFBADF81060002604A999
:1012D0002046ADF81450ADF81660ADF81260FFF777
:1012E000BBFE7020C0F20100009069462046ADF8B8
:1012F0000860ADF80650FFF77DFE20460821FFF795
:1013000071FE04F592300121FFF74CFE20460121C9
:10131000FFF752FE08B070BD10B543F60004C4F2EA
:101320000104204640F2255100F0ECF950B320466C
:1013300000F074FA40F29C11C2F200010B881AB25C
:10134000002A48BF10BD5C04C4B204D40D2C0CD1DB
:1013500042F4804015E048F200030020CFF6FF730E
:101360000A2C08BF42EA03000BE040F2D4006FF3FE
:101370009F33C2F20000C454501C82B2C72A88BFF7
:101380000020088010BD0000F0B587B0054644F28B
:1013900004000121FFF702FC43F6000440F20020A4
:1013A000C4F20104C1F60300A4F5405606AF06904E
:1013B00030463946FFF7D2FA4FF48060ADF8180096
:1013C00004208DF81B0030463946FFF7C7FA40F27B
:1013D0002530C0F20310019001A8FFF771FB002037
:1013E0004FF4402103900491ADF8140002A9204667
:1013F000029500F0B7F9204640F22551012200F095
:1014000099F92046012100F06DF940F2D400C2F2B2
:101410000000C821FEF7F1FF43F6B974C0F60004DE
:101420002046FEF787FF43F6BB75C0F60005284649
:10143000FEF780FF05A0FEF77DFF2846FEF77AFF46
:101440002046FEF777FF07B0F0BD00BF2020202028
:1014500020202053544D33324631303343385436F4
:10146000205553415254312068617320696E69746C
:1014700069616C697A6564210D000000F0B581B086
:1014800044F60004C4F20004204640F2255100F066
:1014900039F900286BD0204600F0C0F940F26824EA
:1014A000C2F20004218840F2A0154A1C6FF31F31DC
:1014B000C2F20005685411B242F480436FF31F3248
:1014C0000027AF5440F29E1640F29F170029C2F247
:1014D0000006C2F20007238028D43278130705D40F
:1014E000C0B2A52822D142F008001EE0D30605D4E0
:1014F00002F00703042B01D0501C16E0C0B242F0EA
:1015000010025A28327005D14CF20000CFF6FF705D
:10151000084308E038780130387016A0FEF70AFF5B
:10152000208800F440502080002030703878142843
:1015300004D300203870307020802870208840F656
:10154000F8710840C82812D30FA0FEF7F3FE2088D8
:1015500000F4704100F5805000F4405008432080B2
:1015600040F2A010C2F20000C821FEF746FF01B011
:10157000F0BD00BF424C4520726563206661696C16
:101580006564210D00000000555341525433205230
:10159000782042756666206F766572666C6F77217B
:1015A0000D000000F0B587B005464FF48020012102
:1015B000FFF7E8FA08200121FFF7F0FA44F60004EB
:1015C00040F20040C4F20004C1F6030004F54446B2
:1015D00006AF069030463946FFF7C0F94FF4006079
:1015E000ADF8180004208DF81B0030463946FFF78F
:1015F000B5F940F22730C0F20310019001A8FFF7BF
:101600005FFA00204FF4402103900491ADF81400DC
:1016100002A92046029500F0A5F8204640F2255187
:10162000012200F087F82046012100F05BF840F22B
:10163000A010C2F20000C821FEF7DFFE43F6B97425
:10164000C0F600042046FEF775FE43F6BB75C0F6F3
:1016500000052846FEF76EFE05A0FEF76BFE284645
:10166000FEF768FE2046FEF765FE07B0F0BD00BF3E
:101670002020202020202053544D33324631303357
:1016800043385436205553415254332068617320F7
:10169000696E697469616C697A6564210D00000086
:1016A00070B5067844F600050446C4F200056EB134
:1016B0002846402100F020F80028F9D0F1B2284651
:1016C00000F0B0F814F8016F002EF1D12846402147
:1016D00000F012F80028F9D021782846BDE87040C3
:1016E00000F0A0B88289002918BF012122F400521D
:1016F00042EA4131818170470088084018BF0120CB
:1017000070470000C1F34212022A06D0012A14BF1A
:1017100000F1140200F10C0201E000F11002128845
:10172000008801F01F03090ADA40C840104000F0A9
:1017300001007047C1F3421301F01F0C1421022B6A
:1017400008BF1021012B4FF0010308BF0C21002A14
:1017500003FA0CF243580CBF23EA02021A43425028
:101760007047000070B586B00446008A0D46C988EF
:1017700020F4405008432082A0894EF6F31108401F
:10178000A9882A896B89084310431843A081A08A3D
:10179000A98920F44070084301AEA0823046FFF7CB
:1017A00009FA43F6000106F10800C4F201018C4277
:1017B00008BF06F10C0000681922B4F90C10504360
:1017C0002A680123B1F1FF3FC8BF022302FA03F1E7
:1017D000B0FBF1F048F21F51C5F2EB11A0FB012361
:1017E0005A096FF0630302FB0300B4F90C300326BF
:1017F000B3F1FF3FC8BF042600FA06F000F1320043
:10180000A0FB01014FF00700C8BF0F2000EA5110F4
:1018100040EA0210208106B070BD000080886FF39E
:101820005F2070476FF35F2181807047007BFFF777
:1018300037BA0000007BFFF75DBA0000007BFFF7BE
:1018400083BA0000007BFFF7A9BA0000FEE70000A2
:101850007047000080B50420FFF706FB40F200004F
:10186000C2F2000000684DF68361C4F21B31A0FB98
:10187000010140F27622880C40F27721C2F2000288
:101880000123C2F2000113704EF210020870CEF272
:10189000000213684FF47A71484343F0020111606B
:1018A0005060106840F00100106080BD43F60001F8
:1018B000C4F201010A885206FCD5C2B28A80704780
:1018C00080B582B04FF4A060FFF72AF9FFF7C2FF9E
:1018D0004FF4E130FFF758FD012040F2D00C0090AA
:1018E00040F6F150C2F2000CC0F6000005A18022C3
:1018F0000023CDF804C001F0FDFC01F043F8002006
:1019000002B080BD53746172745F5461736B0000E8
:10191000F0B581B00D4642F6F87140F27C26C2F275
:101920000001C2F200060F6831680446081D00F08D
:1019300083FC10B1601C0FD01AE0306842F6B06230
:10194000C06BC2F200020121136801FA00F023EA21
:1019500000001060601C0BD155B13068011D42F6CB
:10196000B870C2F2000001B0BDE8F04000F0CEBC9B
:101970003068E41984600BD340F28C20C2F200007E
:1019800000683168043101B0BDE8F04000F07EBC71
:1019900040F28420C2F2000000683168043100F097
:1019A00075FC42F64470C2F2000001688C4238BFF8
:1019B000046001B0F0BD000070B500F0DDFC42F63F
:1019C000FC76C2F20006306818B1BDE8704000F045
:1019D000F9BC42F6B464C2F20004204600F03EFCBA
:1019E00042F6D465C2F20005284600F037FC40F20A
:1019F0008020C2F20000046040F29020C2F2000099
:101A0000056005201021002201F0BAF9002830609D
:101A1000DBD003A100F082FDBDE8704000F0D2BC35
:101A2000546D72510000000042F6A06540F2942A05
:101A30004EF6045842F6A86742F6D87642F69C6BFA
:101A4000C2F20005C2F2000ACEF200084FF080593F
:101A5000C2F20007C2F20006C2F2000B2868F8B119
:101A6000386801303860746801F0AEFE002CF5D0A3
:101A700000F082FC70690469201D00F0DDFBDBF8DA
:101A800000000138CBF8000028680138286000F019
:101A900099FC206C00F0B2FC204600F0AFFCDDE7C2
:101AA000DAF804000228D9D3C8F80090BFF34F8FAA
:101AB000BFF36F8FD2E70000F0B581B0056E0C4622
:101AC00000905DB943F6E46043F60571C0F600008E
:101AD000C0F6000140F6CE12FEF786FB286D696D58
:101AE00088420BD343F6E46043F60571C0F600006C
:101AF000C0F6000140F6CF12FEF776FB286D696D47
:101B000088421FD295F85D602F6DAA6DE2B124B3B3
:101B1000E8686946FEF724FCE968A86D2A68091A96
:101B20009142E96003D2696840420844E860A01E1F
:101B3000B0FA80F040093946002F18BF0121084053
:101B40003F1A17E0002428E02868002498B9686844
:101B500001F094FD6C6004460DE0A8686946FEF74C
:101B6000FFFBA96DD5E9012008449042A86001D38C
:101B70002868A8600024701CC2B2791C82422965C2
:101B800009D0686B48B105F1300001F0D3FD0028A1
:101B900018BF012401E085F85D00204601B0F0BDCA
:101BA00006480068006880F3088862B661B6BFF333
:101BB0004F8FBFF36F8F00DF00BF000008ED00E024
:101BC0002DE9F04F85B0044601F098FC40F2782BE7
:101BD000C2F2000BDBF80010054688425CD240F2EE
:101BE0008028C2F20008D8F800004168002955D0CA
:101BF00042F6FC79C2F200090CE000BFB060D8F8F0
:101C000000003946766100F041FBD8F800004168D9
:101C1000002943D040690669D0F804A0371D384632
:101C200000F00AFBF16A30468847706A0128ECD15F
:101C3000306A50445045E1D85EB943F6E46043F65B
:101C40002D71C0F60000C0F600014FF4D372FEF70C
:101C5000CBFAD9F8000078B10020CDE9010A03964B
:101C600001F038FCD9F8000001A90022002301F09E
:101C7000CFF90028C9D102E000200028C5D143F6E1
:101C8000E46043F62D71C0F60000C0F6000140F29A
:101C90009232FEF7A9FAB8E7002008E040F290215E
:101CA000C2F200010A6808600120C8F80020206024
:101CB0002846CBF8005005B0BDE8F08F80B582B063
:101CC0000020019040F20400C2F2000000680130E0
:101CD0000AD043F6E46043F64271C0F60000C0F655
:101CE0000001CE22FEF780FA4FF0500080F31188F9
:101CF000BFF36F8FBFF34F8F01980028FCD002B065
:101D000080BD00008AB040F2802842F6FC7AC2F220
:101D1000000802ACC2F2000A0DF1040B4FF00109F9
:101D2000D8F8000045681DB14069D0F8048001E092
:101D30004FF0000800F038FF2046FFF741FF0299FE
:101D400011B101F041FD85E006460DB346451FD3B4
:101D500001F03AFD40F28020C2F2000000684069C4
:101D600007693D1D284600F067FA786A01286ED1A0
:101D70003A6A7F6102EB0800B042B8602ED946454E
:101D800001D2404537D240F28020C2F200002DE05F
:101D90000DB1002208E040F29020C2F2000000687D
:101DA0004068B0FA80F04209DAF80000A8EB0601BA
:101DB00000F0C8FB01F008FD40F280280028C2F2C4
:101DC000000851D14EF60450CEF200004FF0805181
:101DD0000160BFF34F8FBFF36F8F45E0A6EB0800A4
:101DE000904208D240F29020C2F2000000682946DA
:101DF00000F04CFA2BE05FB943F6E46043F62D7136
:101E0000C0F60000C0F600014FF4D372FEF7ECF903
:101E1000DAF80000002800F0C3800020CDE90608B1
:101E2000089701F057FBDAF8000006A9002200230A
:101E300001F0EEF858B943F6E46043F62D71C0F6B0
:101E40000000C0F600014FF40272FEF7CDF9F96A06
:101E50003846884740F28028C2F2000804E0D8F8EB
:101E6000000000F013FA00BFDAF80000214600225B
:101E7000002300F0CDFF00283FF452AF0298B0F1EC
:101E8000FF3F03DCDDE90320059990470298002815
:101E9000EAD4049DA86910B1281D00F0CDF9584678
:101EA000FFF78EFE02990929DED8064609FA01F0ED
:101EB00010F0C70F0CD003982B6A291D1A18B242D4
:101EC000AA606D611FD98642C9D2824226D2C6E776
:101ED00010F4047F4CD00398286258B943F6E460AC
:101EE00043F62D71C0F60000C0F600014FF44E72AB
:101EF000FEF77AF9286A291D8219B242AA606D613B
:101F0000ADD818B9B0E7301A984207D240F2902005
:101F1000C2F20000006800F0B9F9A5E7E96A2846B6
:101F20008847686A01289FD1039E2F6A5DB943F6EE
:101F3000E46043F62D71C0F60000C0F600014FF4D6
:101F4000D372FEF751F9DAF80000C0B1B8190021D8
:101F5000CDE90610089501F0BDFADAF8000006A9EF
:101F60000022002301F054F800287FF47DAF0AE03E
:101F700005297FF479AF284600F040FA74E7002085
:101F800000287FF471AF43F6E46043F62D71C0F68C
:101F90000000C0F6000140F22132FEF725F963E7A8
:101FA000002000287FF453AF45E70000F0B581B072
:101FB000044600F0E1F994F95D60012E18DB04F1AC
:101FC000300503E070B2013E012811DD206E28B11A
:101FD00020460021FFF770FD38B9F3E7606B38B198
:101FE000284601F0A7FB0028ECD000F0C5FBE9E78C
:101FF000FF2684F85D6000F0E5F900F0BDF994F982
:102000005C70012F0FDB04F1100500BF606950B157
:10201000284601F08FFB002818BF00F0ADFB78B216
:10202000013F0128F2DC84F85C6001B0BDE8F040BB
:1020300000F0C8B92DE9F047044600F0B5FD40F2C4
:102040008826C2F20006306842F6F469C2F200093E
:1020500088BB40F29560C2F20000C21D22F0070268
:1020600010F00701A0EB020318BF104642F6B07251
:10207000C2F200020027C2E900074FF420520029F3
:1020800018BF03F52052811821F00701A1F10802C1
:10209000326041E90277111AC0E9002142F640702E
:1020A000C2F20000016042F63870C2F20000016026
:1020B000012089F8000099F80000002818BF4FF0AF
:1020C0000040204213D0002401F07EFB60070BD0BB
:1020D00043F6E46043F66B71C0F60000C0F6000101
:1020E0004FF49672FEF780F82046BDE8F08744B1C1
:1020F00060071ABF24F0070000F1100504F108057D
:1021000000E00025002D4FF00004DDD042F63878C5
:10211000C2F20008D8F800008542D5D842F6B07067
:10212000C2F2000007687968A9420ED23A6842B14B
:10213000516838461746A94207D23A68002AF7D1B3
:1021400003E042F6B070C2F2000032689742BAD0A3
:10215000D0F800A03A68491B1129026033D37C19DA
:1021600060070AD043F6E46043F66B71C0F60000E6
:10217000C0F60001EC22FEF737F8786842F6B0713D
:10218000401BC2F2000160607D6000BF0846096824
:10219000A142FBD342688318A34203D1636804467B
:1021A0001A4442606368E2188A4201D00A4606E097
:1021B0003268914203D0D1E90026F1186160A04253
:1021C000226018BF046042F640707968D8F8002099
:1021D000C2F200000368511A9942C8F8001038BFD3
:1021E000016099F800000AF10804796800284FF0AE
:1021F000000018BF41F00041C7E9000164E700009A
:1022000040F27C20C2F20000016819B101680A6E38
:1022100001320A6600687047034641F6BD40C0F6C9
:1022200000004FF0807C21F0010103E90310A3F1CD
:10223000400043F8202C7047D0E902324169DA604F
:10224000D1F808C0C2688445936008BF8A604B68B3
:1022500000224261581E48607047000000F10C01E6
:102260004FF0FF3C00234FF05A32C0E90023816059
:10227000C0E904C1C0E906127047000000214FF018
:102280005A320260C0E905127047000070B504467A
:1022900000684E680D46B0F15A3F03D1E069B0F1D5
:1022A0005A3F0AD043F6E46043F6F261C0F60000FC
:1022B000C0F600019922FDF797FF2868B0F15A3F58
:1022C00003D1A869B0F15A3F0AD043F6E46043F65F
:1022D000F261C0F60000C0F600019A22FDF784FF0B
:1022E000701C07D004F10C01084689684A68B242A4
:1022F000FAD900E0A06981686C61A960CD60E860EE
:10230000856060680130606070BD000070B5044693
:102310000068A668B0F15A3F0D4603D1E069B0F1FC
:102320005A3F0AD043F6E46043F6F261C0F600007B
:10233000C0F600017B22FDF757FF2868B0F15A3F35
:1023400003D1A869B0F15A3F0AD043F6E46043F6DE
:10235000F261C0F60000C0F600017C22FDF744FFE8
:10236000F068AE60E860F068F560856060686C6198
:102370000130606070BD00004FF0500080F31188A4
:10238000BFF36F8FBFF34F8F40F20400C2F2000023
:1023900001684A1C0029026018BF70474EF60450BD
:1023A000CEF20000006800060BD043F6E46043F66E
:1023B0004271C0F60000C0F600014FF4BE72FDF796
:1023C00013BF704710B540F20404C2F20004206845
:1023D00058B943F6E46043F64271C0F60000C0F617
:1023E000000140F28312FDF7FFFE206801382060F3
:1023F00018BF10BD002080F3118810BD70B50028F3
:102400005DD042F6F466C2F200060446307854F815
:10241000041C002818BF4FF000400842A4F1080532
:102420000BD143F6E46043F66B71C0F60000C0F6D2
:1024300000014FF4A072FDF7D7FE286858B143F6AB
:10244000E46043F66B71C0F60000C0F6000140F294
:102450004112FDF7C9FE307854F8041C002818BF5B
:102460004FF0004008422AD02A68002A18BF70BDE9
:1024700021EA000044F8040C00F096FB42F63871A3
:10248000C2F2000154F8040C0A681044086042F6D5
:10249000B071C2F2000100BF08460968A942FBD32F
:1024A00042688318AB4204D154F8043C05461A44F0
:1024B00042606A68AB188B4202D00B460BE070BDDD
:1024C00040F28823C2F200031B68994203D0D1E98D
:1024D0000036B1186960A8422B6018BF0560BDE8DE
:1024E000704001F071B900004EF21000CEF2000011
:1024F00000210160816040F20001C2F20001096820
:1025000044F6D352C1F26202A1FB02124FF0FF3136
:1025100001EB9211416007210160704742F66C7C2B
:102520000022C2F2000C00BF5CF8323023B101324D
:10253000082A08BF7047F7E70CEBC2034CF83210CB
:102540005860704770B515460E460446FFF714FFF5
:1025500094F85C00FF2804BF002084F85C0094F825
:102560005D00FF2804BF002084F85D00FFF72AFF0C
:10257000206D28B904F1300031462A4600F024F9D4
:102580002046BDE87040FFF711BD000070B500287F
:1025900054D042F6A865C2F200050446286858B136
:1025A00043F6E46043F61971C0F60000C0F600017E
:1025B00040F2CF42FDF718FE28680130286042F64D
:1025C000F87040F27C25C2F20000C2F200050668F5
:1025D00028680430FFF730FE60B9286842F6B06220
:1025E000C06BC2F200020121136801FA00F023EA75
:1025F000000010602868A419846009D340F28C2080
:10260000C2F20000006829680431FFF73FFE10E0C5
:1026100040F28420C2F20000006829680431FFF70C
:1026200035FE42F64470C2F2000001688C4238BFA9
:10263000046001F0C9F8002818BF70BD4EF60450C0
:10264000CEF200004FF080510160BFF34F8FBFF317
:102650006F8F70BD70B50446FFF78EFE40F27C268A
:10266000002CC2F2000608BF3468251D2846FFF77B
:10267000E3FD98B9E06B40F29421C2F2000101EB56
:102680004011496851B942F6B062C2F2000201211C
:10269000136801FA00F023EA00001060606B18B1C3
:1026A00004F12000FFF7C8FD42F6AC60C2F2000062
:1026B000016801310160306884421DD042F69C609F
:1026C000C2F20000016801390160206CFFF796FE3C
:1026D0002046FFF793FE40F28420C2F2000001681A
:1026E0004968B9B1006842F644714069C2F200011C
:1026F00000698068086014E042F6D870C2F20000F9
:102700002946FFF703FE42F6A060C2F2000001680E
:10271000013105E042F64470C2F200004FF0FF3193
:102720000160FFF74FFE42F6AC70C2F20000006895
:1027300000B33068844218BF70BD42F6A860C2F290
:102740000000006858B143F6E46043F61971C0F622
:102750000000C0F6000140F26542FDF745FD4EF66F
:102760000450CEF200004FF080510160BFF34F8F54
:10277000BFF36F8F70BD000043F20400C2F200008F
:102780000121016070470000B0B505460C4658B9FC
:1027900043F6E46043F61971C0F60000C0F600018C
:1027A00040F60632FDF720FD40F27C20C2F2000028
:1027B000006800F120012846FFF768FD204601214E
:1027C000BDE8B040FFF7A4B870B5144606460D4604
:1027D00058B943F6E46043F61971C0F60000C0F63C
:1027E000000140F63132FDF7FFFC40F27C20C2F2DE
:1027F0000000006800F120013046FFF787FD002C43
:1028000018BF4FF0FF3528462146BDE87040FFF75E
:102810007FB80000F0B581B0E8B140F27C26C2F28A
:1028200000060446C06B3168C96B884213D2616AE6
:10283000002904D43168C96BC1F12001616240F202
:102840009427A169C2F2000707EB4010814204D02F
:102850003068C06BE06301B0F0BD251D2846FFF76E
:10286000EBFC42F6B062C2F2000258B9E06B07EB33
:102870004011496831B90121136801FA00F023EAD7
:102880000000106030680121C06BE0631368814074
:102890000B4307EB40102946136001B0BDE8F04040
:1028A000FFF734BD70B5A8B140F27C26C2F2000635
:1028B00004463068A04208BF70BDFFF75DFDA06907
:1028C00042F6B871C2F20001884211D0BDE87040F2
:1028D000FFF778BD43F6E46043F61971C0F60000D7
:1028E000C0F6000140F2AB62BDE87040FDF77CBC71
:1028F000606B0028EAD1251D2846FFF79DFC42F6B3
:10290000B062E06BC2F200020121136881401943FA
:10291000116040F29421C2F2000101EB40102946FF
:10292000FFF7F4FCE06B3168C96B8842CED34EF6FA
:102930000450CEF200004FF080510160BFF34F8F82
:10294000BFF36F8FBDE87040FFF73CBD10B5044684
:1029500058B943F6E46043F61971C0F60000C0F6BA
:10296000000140F6C132FDF73FFC42F64870C2F26A
:1029700000000068206042F6F870C2F200000068B3
:10298000606010BD80B582B0002042F63C7C0090B3
:1029900041F62920C2F2000CC0F600001FA18222DD
:1029A0000023CDF804C000F0A5FC012808BF00F00A
:1029B000A9FF411C21D001282ED14FF0500080F3F7
:1029C0001188BFF36F8FBFF34F8F42F64470C2F28E
:1029D00000004FF0FF31016042F6AC70C2F200001F
:1029E0000121016042F6F870C2F20000002101608E
:1029F00002B0BDE8804000F023B943F6E46043F63E
:102A00001971C0F60000C0F6000140F2847202B0F5
:102A1000BDE88040FDF7E8BB02B080BD49444C45AD
:102A200000000000F0B581B00446FFF7A5FC40F2BD
:102A30007C27002CC2F2000708BF3C68261D3046E8
:102A4000FFF7FAFB98B9E06B40F29421C2F2000163
:102A500001EB4011496851B942F6B062C2F200027E
:102A60000121136801FA00F023EA00001060606B96
:102A700018B104F12000FFF7DFFB42F6B875C2F28F
:102A8000000528463146FFF741FCFFF79BFC42F664
:102A9000AC76C2F200063068B0B1FFF76DFC40F2D0
:102AA0008420C2F200000168496821B100684069D1
:102AB0000069806801E04FF0FF3042F64471C2F2D5
:102AC00000010860FFF77EFC3868844201D001B045
:102AD000F0BD3068F0B142F6A860C2F200000068B4
:102AE00058B143F6E46043F61971C0F60000C0F631
:102AF000000140F25762FDF777FB4EF60450CEF22C
:102B000000004FF080510160BFF34F8FBFF36F8F14
:102B100001B0F0BD42F69C61C2F20001686809682C
:102B2000884201D100203CE042F6A860C2F20000D9
:102B3000006838B143F20400C2F2000001210160D4
:102B400001B0F0BD43F20400C2F2000000210160B8
:102B500042F6B060C2F200000068B0FA80F0C0B285
:102B600040F29421C0F11F00C2F2000101EB4014B9
:102B7000606858B943F6E46043F61971C0F6000086
:102B8000C0F6000140F6F622FDF72EFB54F8080FC0
:102B90008068211D8842206001D180682060206803
:102BA0000069386001B0F0BD42F6A860C2F20000D2
:102BB000016801310160704710B542F6A860C2F2A9
:102BC0000000006830B143F20400C2F200000121AD
:102BD000016010BD43F20400C2F200000021016058
:102BE00042F6B060C2F200000068B0FA80F0C0B2F5
:102BF00040F29421C0F11F00C2F2000101EB401429
:102C0000606858B943F6E46043F61971C0F60000F5
:102C1000C0F6000140F6F622FDF7E6FA54F8080F78
:102C20008068211D8842206001D180682060206872
:102C300040F27C210069C2F20001086010BD000072
:102C4000B0B584B04EF20044CEF20004207842F6D3
:102C500095610290FF2020702078C2F200018DF86B
:102C600007009DF8070042F6986500F050000870D4
:102C7000C2F20005072028609DF90700B0F1FF3F70
:102C80000BDC062028609DF80710013849008DF8FC
:102C900007109DF907100029F4D4286803280BD0E9
:102CA00043F6E46043F64271C0F60000C0F600014E
:102CB0004FF49A72FDF798FA286803280BD043F670
:102CC000E46043F64271C0F60000C0F6000140F235
:102CD0003D12FDF789FA28684FF4E06101EA00200F
:102CE000286002982070D4F8200940F47000C4F8DD
:102CF0002009D4F8200940F07040C4F82009FFF7FB
:102D0000F3FB40F20404C2F2000400252560FEF744
:102D100047FFFFF751FF0395206801300AD043F6C3
:102D2000E46043F64271C0F60000C0F60001CE2216
:102D3000FDF75AFA4FF0500080F31188BFF36F8F00
:102D4000BFF34F8F03980028FCD0002004B0B0BD23
:102D500080B54FF0500080F31188BFF36F8FBFF341
:102D60004F8F00F0D1FB30B14EF60450CEF2000090
:102D70004FF080510160002080F3118880BD000079
:102D8000F0B581B0144606460F4658B943F6E460E4
:102D900043F60571C0F60000C0F600014FF4C4729E
:102DA000FDF722FA07FB06F06C30002F08BF6C20FD
:102DB000FFF740F9054638B32846002F18BF6C309E
:102DC0002860C5E91567FFF7D7FA2868D5E9151215
:102DD000002602FB0103013901FB02012E65C5E952
:102DE0000130FF20E96085F85C0085F85D0005F1A1
:102DF0001000FFF733FA05F13000FFF72FFAFFF765
:102E0000E1FA85F868402E66284601B0F0BD000062
:102E10002DE9F04F87B09A460C460646069208B157
:102E2000DCB90CE043F6E46043F60571C0F600003F
:102E3000C0F6000140F2DC42FDF7D6F96CB9B06D86
:102E400058B143F6E46043F60571C0F60000C0F6E1
:102E5000000140F2DD42FDF7C7F9039400F03AFBB0
:102E600068B9069858B143F6E46043F60571C0F6B8
:102E70000000C0F600014FF49C62FDF7B5F906F1C1
:102E80003000029006F1100004AD0DF1180B4FF068
:102E9000000801900DE000BF3046FFF787F800F012
:102EA00093FCFFF769FA346DFFF78CFA002C00F001
:102EB000AA80FFF761FAD6F85090B9F1000F23D03D
:102EC000B26DF76852B17068B918F160814224BFE1
:102ED0003068F060F1680398FDF742FABAF1000F2C
:102EE00020D0706BF760B8B3029800F023FC98B361
:102EF0004EF60450CEF200004FF080510160BFF357
:102F00004F8FBFF36F8F27E00698002853D0B8F19A
:102F1000000F02D12846FFF719FD4FF001080120EC
:102F200000BB71E0A9F101003065306810B9FFF70E
:102F300067F97060706978B1019800F0FBFB58B1D7
:102F40004EF60450CEF200004FF080510160BFF306
:102F50004F8FBFF36F8F00BFFFF734FA00200127B8
:102F6000002851D0FFF72EFAFFF71EFEFFF704FAF4
:102F700096F85C00FF2804BF002086F85C0096F8F5
:102F80005D00FF2804BF002086F85D00FFF71AFAF5
:102F90002846594600F060F900287FF47DAFFFF71E
:102FA000EBF9346DFFF70EFA64B13046FEF7FEFF21
:102FB00000F00AFC7DE7FFF705FA00270020002853
:102FC000D0D121E0306830B9FFF7D6F97068FFF74B
:102FD00021FCFFF7F7F906990298FFF7D5FB304679
:102FE000FEF7E4FF00F0F0FB00287FF462AF4EF63E
:102FF0000450CEF200004FF080510160BFF34F8FBC
:10300000BFF36F8F55E70027384607B0BDE8F08F54
:103010002DE9F04F85B01D460E460446049208B1D6
:10302000DEB90CE043F6E46043F60571C0F600003B
:10303000C0F6000140F2D922FDF7D6F86EB9A06DB6
:1030400058B143F6E46043F60571C0F60000C0F6DF
:10305000000140F2DA22FDF7C7F8022D0ED1606DB3
:1030600001280BD043F6E46043F60571C0F600007A
:10307000C0F6000140F2DB22FDF7B6F8019600F041
:1030800029FA68B9049858B143F6E46043F605712B
:10309000C0F60000C0F6000140F2DE22FDF7A4F801
:1030A000FFF76AF9206D022D5BD0616D884258D31D
:1030B00004F11007012002AE4FF0000B0DF11009D2
:1030C0000499002974D0C00702D03046FFF73EFCB7
:1030D000FFF778F9FFF768FDFFF74EF994F85C0009
:1030E000FF2808BF84F85CB094F85D00FF2808BF93
:1030F00084F85DB0FFF766F93046494600F0ACF859
:10310000002858D1FFF738F9D4F850A0D4F85480EB
:10311000FFF758F9C24515D104993846FFF734FB3B
:103120002046FEF743FF00F04FFB80B94EF60450F7
:10313000CEF200004FF080510160BFF34F8FBFF31C
:103140006F8F04E02046FEF731FF00F03DFBFFF7F4
:1031500013F9206D022D04D0616D88424FF00000FC
:10316000AED2266DA26DD2B175B3E0680199FDF7BC
:10317000F7F8E168A06D2268091A9142E16003D274
:10318000616840420844E060A81EB0FA80F040093F
:103190003146002E18BF01210840361A21E0206870
:1031A0000027F8B9606800F069FA6760074619E01F
:1031B000FFF708F904E02046FEF7F8FE00F004FBF4
:1031C000002005B0BDE8F08FA0680199FDF7C8F8B0
:1031D000A16DD4E9012008449042A06001D3206889
:1031E000A0600027701C2065206E80B12046294613
:1031F000FEF762FC50B34EF60450CEF200004FF0E2
:1032000080510160BFF34F8FBFF36F8F1EE0606B83
:1032100080B104F1300000F08DFAB8B14EF60450E0
:10322000CEF200004FF080510160BFF34F8FBFF32B
:103230006F8F0BE057B14EF60450CEF200004FF006
:1032400080510160BFF34F8FBFF36F8FFFF7BAF864
:10325000012005B0BDE8F08FB0B504460D4688B337
:103260005DB943F6E46043F61971C0F60000C0F69C
:10327000000140F6CC32FCF7B7FFFFF77DF842F6CD
:10328000F87EC2F2000EDEF8003029684A1C28D011
:1032900042F6487CC2F2000CDCF800202068824232
:1032A00002D06068834220D260681B1A99421AD902
:1032B000C81A2860DCF800002060DEF800006060BA
:1032C000002413E043F6E46043F61971C0F60000F1
:1032D000C0F6000140F6CB32FCF786FF002DCCD1C2
:1032E000BFE7002402E0012400E00124FFF76AF8B0
:1032F0002046B0BD2DE9F04F81B097008146384699
:10330000984692460D46FEF795FE68B106466C203B
:10331000FEF790FE28B10446066444B94FF0FF362C
:10332000D3E03046FFF76AF80024002CF6D0206C7A
:10333000DDF828B03946A522FDF757F8206C00EBE0
:103340008A00043820F00706002000BF295C2218FC
:1033500082F84410295C19B10F2800F10100F5D161
:10336000251D0027284684F85370BBF11F0F28BF86
:103370004FF01F0BC4F83CB0C4E917B7FEF77EFF4F
:1033800004F12000FEF77AFFCBF1200060623046A6
:103390004946424664612463676684F86870FEF7B4
:1033A0003BFF0B992060002918BF0C60FEF7E4FF7B
:1033B00042F69C60C2F20000016840F27C2A0131B2
:1033C0000160C2F2000ADAF8001042F6AC7940F26D
:1033D0009427C2F20009C2F2000761B1D9F80000D7
:1033E000002841D1DAF80000E16BC06B884298BF39
:1033F000CAF8004038E0CAF800400068012833D11C
:10340000002600BFB819FEF729FF2036B6F5806FF9
:10341000F8D142F6F868C2F200084046FEF71EFFF7
:1034200042F61876C2F200063046FEF717FF42F663
:103430004C70C2F20000FEF711FF42F6D870C2F2E3
:103440000000FEF70BFF42F6B870C2F20000FEF774
:1034500005FF40F28420C2F20000C0F8008040F274
:103460008C20C2F20000066042F6AC60C2F200009E
:103470000168012601310160616542F6B061E06BCF
:10348000C2F200010A6806FA00F31A430A6007EB69
:1034900040102946FEF73AFFFEF794FFD9F80000E6
:1034A00098B1DAF80000E16BC06B88420CD24EF69E
:1034B0000450CEF200004FF080510160BFF34F8FF7
:1034C0000126BFF36F8F00E00126304601B0BDE852
:1034D000F08F000042F6AC70C2F2000000680028D5
:1034E00004BF0120704742F6A860C2F200000068E5
:1034F000B0FA80F0400940007047000042F6F870D2
:10350000C2F20000006870472DE9F04F81B042F62A
:10351000A860C2F20000006840B142F6A460C2F2A6
:10352000000001680024013101609BE042F6F87060
:10353000C2F20000016842F6447511F1010BC2F2BB
:103540000005C0F800B02CD340F28424C2F200047D
:103550002068406858B143F6E46043F61971C0F63C
:103560000000C0F6000140F6D912FCF73DFE40F223
:103570008C21C2F2000120680A682260086042F6CD
:103580004870C2F2000001680131016020684068A3
:1035900020B1206840690069806801E04FF0FF3089
:1035A0002860286840F27C2A8345C2F2000A01D2D2
:1035B00000244AE040F28426C2F20006306800246B
:1035C0004068C0B342F6B0680127C2F200081CE0B0
:1035D000D9F83C00D8F8001007FA00F21143C8F8F7
:1035E000001040F29421C2F2000101EB4010294684
:1035F000FEF78CFED9F83C00DAF80010C96B32688F
:103600008842506828BF3C46C0B130684069D0F855
:103610001090D9F80800834512D309F10405284613
:10362000FEF70AFED9F834000028D1D009F12000B5
:10363000FEF702FECCE74FF0FF3005E04FF0FF3021
:1036400042F64475C2F200052860DAF8000040F244
:103650009421C06BC2F2000101EB401040680128C8
:1036600088BF012443F20400C2F200000068002871
:1036700018BF0124204601B0BDE8F08F70B50028C6
:1036800056D0044640F27C20C2F200000068A042FE
:103690000BD043F6E46043F61971C0F60000C0F6A3
:1036A000000140F6C762FCF79FFD206E58B943F653
:1036B000E46043F61971C0F60000C0F6000140F660
:1036C000C962FCF791FDE16BD4E9172000260138AF
:1036D000914220662AD048BB251D2846FEF7ACFD46
:1036E000002840F2942042F6B061C2F20000C2F21B
:1036F00000010BD1E26B00EB42135B6833B901238D
:103700000E6803FA02F226EA02020A60E26D01265E
:10371000C2F12003E26363620B6806FA02F42343FA
:103720000B6000EB42102946FEF7F0FD304670BDFD
:10373000002070BDB0B5406905695DB943F6E4602D
:1037400043F61971C0F60000C0F6000140F6613280
:10375000FCF74AFD05F120042046FEF76DFD42F618
:10376000A860C2F20000006820B142F64C70C2F2BC
:10377000000013E02C1D2046FEF75EFD42F6B0620D
:10378000E86BC2F200020121136881401943116005
:1037900040F29421C2F2000101EB40102146FEF7F5
:1037A000B5FD40F27C21C2F20001E86B0968C96BEB
:1037B000884291BF002043F20401C2F200010120BF
:1037C00088BF0860B0BD00002DE9F04F81B042F61F
:1037D000A864C2F20004206858B943F6E46043F6D6
:1037E0001971C0F60000C0F600014FF4FD62FCF74D
:1037F000FBFCFEF7C1FD206801382060206830B175
:103800000024FEF7DFFD204601B0BDE8F08F42F650
:103810009C60C2F200000068002846D042F64C7658
:10382000C2F20006706843F204080028C2F20008E1
:1038300044D042F6B06540F2942940F27C2A4FF021
:10384000010BC2F20005C2F20009C2F2000A00BF79
:103850007069076907F12000FEF7EEFC3C1D204669
:10386000FEF7EAFCF86B29680BFA00F211432960B5
:1038700009EB40102146FEF749FDF86BDAF800101D
:10388000C96B884228BFC8F800B070680028DFD133
:10389000A7B140F28420C2F200000168496831B14A
:1038A000006840690069806803E00024A9E74FF0E0
:1038B000FF3042F64471C2F20001086042F6A4648F
:1038C000C2F2000425685DB1012600BFFFF71CFEAF
:1038D000002818BFC8F80060013DF7D10020206023
:1038E000D8F8000060B14EF60450CEF200004FF060
:1038F00080510160BFF34F8F0124BFF36F8F80E7CA
:1039000000247EE710B582B0FEF756F842F6FC7050
:10391000C2F20000006808B31F2043F200040090C8
:1039200041F60550C2F20004C0F600000DA14FF4AC
:10393000827200230194FFF7DDFC04465CB943F674
:10394000E46043F62D71C0F60000C0F6000140F2BD
:103950003312FCF749FC204602B010BD0024002CB5
:10396000F9D1ECE7546D7220537663002DE9C04124
:1039700030B4DFF8A4C23CEA111418BF3CEA1314B7
:1039800000F0ED801CEA111481EA030544EAD574C5
:1039900018BF1CEA131500F0C880A4EB050404F15D
:1039A0007F7404F500344FF0004545EAC12145EA33
:1039B000C32341EA505143EA52534FEAC0204FEA31
:1039C000C222994208BF904200F09D804FEA1365E1
:1039D0000FF24416765D4FEA134506FB05F7C7F173
:1039E000807706FB07F74FEAD737A7FB03687642D5
:1039F000A7FB06CEC8F5803838BFA8F1010807FB41
:103A000008E6A6FB028C4FF0000EE6FB03CEDCF1CD
:103A1000000CCEF1004E38BFAEF1010EA6FB0C58E3
:103A20004FF00007E6FB0E87A1FB08C6A0FB07CE00
:103A300016EB0E064FF0000545F10005E1FB0765AA
:103A400015F1E04E7EBFA4F580345FEA46066D4175
:103A500016F1800745F100054FEA172747EA056789
:103A60004FEA15254FEA0666A6F1DE46B6F1805FFD
:103A700020D9384605EBC47124F0010C01EB0C1180
:103A8000BCF1FE6F02D8F0BCBDE8008124425CBFEF
:103A900001F5801E9EEAC47F02D4F0BCBDE800811F
:103AA000244200F13980A1F1C041F0BCBDE80041E1
:103AB00000F008BA4FEAD02040EA41504FEAD12145
:103AC0004FEAD22242EA43524FEAD323A7FB0286AF
:103AD00007FB036605FB02661EEA0E0F58BFA6EB46
:103AE0000056B6EB00564FEA520E4EEAC37E18EB74
:103AF0000E0E56EB530EBCD518EB02085E417F1C30
:103B000055F10005B5E74FF480154FF000074FF071
:103B100000064FF00008ACE701F1C04101F00041A0
:103B20004FF00000F0BCBDE800810CEA131511EA6B
:103B30000C1F00D00CE013EA0C1F00F026804FF0A1
:103B4000000081EA030101F00041F0BCBDE8008102
:103B5000F0BCBDE8004181EA030100F0B3B9F0BC5C
:103B6000BDE8004170B500F05FF900BF097EFC3E82
:103B700000F007B84FF0000081EA030101F00041B6
:103B8000704781EA030100F09DB9F0BCBDE8004137
:103B900022494FF000007047FFFDFBF9F7F5F4F202
:103BA000F0EEEDEBE9E8E6E4E3E1E0DEDDDBDAD8D8
:103BB000D7D5D4D3D1D0CFCDCCCBCAC8C7C6C5C436
:103BC000C2C1C0BFBEBDBCBBBAB9B8B7B6B5B4B34D
:103BD000B2B1B0AFAEADACABAAA9A8A8A7A6A5A438
:103BE000A3A3A2A1A09F9F9E9D9C9C9B9A999998FC
:103BF0009797969595949393929191908F8F8E8E9F
:103C00008D8C8C8B8B8A898988888787868585842B
:103C100084838382828181800000FF070000F87F17
:103C20004FEA41034FEA5353A3F58063D3F11E03D8
:103C3000C8BFD3F1210C0CDD4FF0004242EAC12293
:103C400042EA505232FA03FC8CEAE17CACEBE170C0
:103C50007047102BC4BF0020704703F5787CBCF17F
:103C6000FF3F04D06FF0004282EA2100704770B538
:103C700000F0DAF84992248000207047F2E710F053
:103C8000004248BF4042B0FA80F310FA03F10AD074
:103C9000C3F11D0303F5806302EB03524FEA415069
:103CA00002EBD12170474FF000007047B0FA80F36B
:103CB00010FA03F10AD0C3F11D0303F580634FEA44
:103CC00003524FEA415002EBD12170474FF0000000
:103CD0007047000070B5DFF848C11CEA111E1EBF16
:103CE0001CEA13159EEA0C0F95EA0C0F00F06F808A
:103CF00081EA03044EEAD47EAE4421EA4C1123EA61
:103D00004C1341F4801143F48013AEF17F7EA1FB8C
:103D1000024CA0FB0365361955EB0C05A1FB034CC7
:103D20004CF10003A0FB021C16EB0C06654153F19D
:103D30000003094218BF46F0010613F4007F0BD1BF
:103D40004FEA03314FEA053041EA155140EA165077
:103D500034036FF003020AE04FEAC3214FEAC520A3
:103D600041EA555140EA5650F4026FF0020202EB6C
:103D70002E4201EB025585EACE710AD05FEA440C6F
:103D800018BF24F0004450F1000041F1000120EA86
:103D9000D47040F2FE7C624500D270BDA84214BFD0
:103DA0004FF080444FF04044002E08BF0024BEF185
:103DB000806FA8BFA1F1C041BDE8704080F2828051
:103DC00001F1C04101F000414FF0000070470CEAE2
:103DD00013159EEA0C0F18BF95EA0C0F06D081EA66
:103DE000030E4FF000000EF0004170BD00F01CF813
:103DF0008900013E00F007B800F009B84FEA430C13
:103E00005FEA5C5C08D081EA030100F05BB84FEA2E
:103E1000410C5FEA5C5CF6D102494FF0000070474C
:103E20000000FF070000F87F0EF1020E2EF0030ED7
:103E30005EF8046B364205D4012A43EB030515F501
:103E4000001F12D8012841EB010C1CF5001F0CD8F3
:103E50000ED14FEAD17C0CEB4C0C0CF1020C15F599
:103E6000001F08BF4CEBD37C04E04FF0080C01E0CE
:103E70004FEAD37C0CEB4C0526FA05F606F0070654
:103E8000B6F1040C06D20EEB860CBDE870404CF087
:103E9000010C6047DFE80CF0090B02024FF0004113
:103EA000A1F500214FF0000070BD19461046012811
:103EB00051EB010418BFD4F5001484BF002001F0B9
:103EC000004170BD0808A0F500114FEA31017047AC
:103ED00002040608000000000102030401020304BA
:103EE000060708094572726F723A25732C25640D16
:103EF0000A002E2E2F4672656552544F532F6C695F
:103F000073742E63002E2E2F4672656552544F53E4
:103F10002F71756575652E63002E2E2F46726565AF
:103F200052544F532F7461736B732E63002E2E2FD8
:103F30004672656552544F532F74696D6572732EC6
:103F400063002E2E2F4672656552544F532F706FAB
:103F5000727461626C652F525644532F41524D5F0B
:103F6000434D332F706F72742E63002E2E2F4672C6
:103F7000656552544F532F706F727461626C652F78
:103F80004D656D4D616E672F686561705F342E639E
:103F9000003D3D3D3D3D3D3D3D3D3D3D3D3D3D3D8E
:103FA0003D3D3D3D3D3D3D3D3D3D3D3D3D3D3D3D41
:103FB0003D3D3D3D3D3D3D3D3D0D002A2A2A2A2AFD
:103FC0002A2A2A2A2A2A2A2A2A2A2A2A2A2A2A2A51
:103FD0002A2A2A2A2A2A2A2A2A2A2A2A2A2A2A2A41
:103FE0002A2A2A2A2A2A2A2A2A2A2A2A2A2A0D0078
:103FF000636172206861732073746F7070656421EF
:1040000000504131310050423100504133005042A4
:10401000390000003840000800000020680000005F
:1040200028010008A040000868000020A03500001A
:10403000440100080000000000A24A04AAAAAAAA9B
:10404000B8012242BC0122420140000800000000E9
:10405000850C00082D1800088401214288012142A6
:104060000A40000800000000850C00083518000810
:104070009401214290012142064000080000000006
:10408000850C00083D1800089C012142980121423E
:104090000E40000800000000850C000845180008CC
:04000005080000ED02
:00000001FF
